{
  "_format": "hh-sol-artifact-1",
  "contractName": "SplitFactory",
  "sourceName": "contracts/SplitFactory.sol",
  "abi": [
    {
      "anonymous": false,
      "inputs": [
        {
          "indexed": true,
          "internalType": "address",
          "name": "creator",
          "type": "address"
        },
        {
          "indexed": false,
          "internalType": "address",
          "name": "splitterAddress",
          "type": "address"
        },
        {
          "indexed": false,
          "internalType": "string",
          "name": "name",
          "type": "string"
        },
        {
          "indexed": false,
          "internalType": "address",
          "name": "token",
          "type": "address"
        },
        {
          "indexed": false,
          "internalType": "address[]",
          "name": "members",
          "type": "address[]"
        },
        {
          "indexed": false,
          "internalType": "uint256[]",
          "name": "shares",
          "type": "uint256[]"
        }
      ],
      "name": "SplitterCreated",
      "type": "event"
    },
    {
      "inputs": [
        {
          "internalType": "uint256",
          "name": "",
          "type": "uint256"
        }
      ],
      "name": "allSplitters",
      "outputs": [
        {
          "internalType": "address",
          "name": "",
          "type": "address"
        }
      ],
      "stateMutability": "view",
      "type": "function"
    },
    {
      "inputs": [
        {
          "internalType": "string",
          "name": "name",
          "type": "string"
        },
        {
          "internalType": "address",
          "name": "token",
          "type": "address"
        },
        {
          "internalType": "address[]",
          "name": "members",
          "type": "address[]"
        },
        {
          "internalType": "uint256[]",
          "name": "shares",
          "type": "uint256[]"
        },
        {
          "internalType": "bool",
          "name": "autoDistribute",
          "type": "bool"
        }
      ],
      "name": "createSplitter",
      "outputs": [
        {
          "internalType": "address",
          "name": "",
          "type": "address"
        }
      ],
      "stateMutability": "nonpayable",
      "type": "function"
    },
    {
      "inputs": [],
      "name": "getAllSplitters",
      "outputs": [
        {
          "internalType": "address[]",
          "name": "",
          "type": "address[]"
        }
      ],
      "stateMutability": "view",
      "type": "function"
    },
    {
      "inputs": [
        {
          "internalType": "address",
          "name": "user",
          "type": "address"
        }
      ],
      "name": "getUserSplitters",
      "outputs": [
        {
          "internalType": "address[]",
          "name": "",
          "type": "address[]"
        }
      ],
      "stateMutability": "view",
      "type": "function"
    },
    {
      "inputs": [
        {
          "internalType": "address",
          "name": "",
          "type": "address"
        },
        {
          "internalType": "uint256",
          "name": "",
          "type": "uint256"
        }
      ],
      "name": "userSplitters",
      "outputs": [
        {
          "internalType": "address",
          "name": "",
          "type": "address"
        }
      ],
      "stateMutability": "view",
      "type": "function"
    }
  ],
  "bytecode": "0x608060405234801561001057600080fd5b506142cb806100206000396000f3fe60806040523480156200001157600080fd5b50600436106200005e5760003560e01c806307e7d77e14620000635780635bc85a5214620000995780635c8a5bee14620000bb578063fdb78caf14620000f1578063fe74ab361462000127575b600080fd5b6200008160048036038101906200007b919062000c82565b6200015d565b60405162000090919062000d78565b60405180910390f35b620000a362000682565b604051620000b2919062000e63565b60405180910390f35b620000d96004803603810190620000d3919062000e87565b62000712565b604051620000e8919062000e63565b60405180910390f35b6200010f600480360381019062000109919062000eb9565b620007e1565b6040516200011e919062000d78565b60405180910390f35b6200014560048036038101906200013f919062000eeb565b62000821565b60405162000154919062000d78565b60405180910390f35b60008073ffffffffffffffffffffffffffffffffffffffff168573ffffffffffffffffffffffffffffffffffffffff1603620001d0576040517f08c379a0000000000000000000000000000000000000000000000000000000008152600401620001c79062000f93565b60405180910390fd5b825184511462000217576040517f08c379a00000000000000000000000000000000000000000000000000000000081526004016200020e9062001005565b60405180910390fd5b60008451116200025e576040517f08c379a0000000000000000000000000000000000000000000000000000000008152600401620002559062001077565b60405180910390fd5b600080600090505b84518110156200048557600073ffffffffffffffffffffffffffffffffffffffff168682815181106200029e576200029d62001099565b5b602002602001015173ffffffffffffffffffffffffffffffffffffffff1603620002ff576040517f08c379a0000000000000000000000000000000000000000000000000000000008152600401620002f69062001118565b60405180910390fd5b600085828151811062000317576200031662001099565b5b60200260200101511162000362576040517f08c379a000000000000000000000000000000000000000000000000000000000815260040162000359906200118a565b60405180910390fd5b84818151811062000378576200037762001099565b5b6020026020010151826200038d9190620011db565b91506000600182620003a09190620011db565b90505b86518110156200046e57868181518110620003c357620003c262001099565b5b602002602001015173ffffffffffffffffffffffffffffffffffffffff16878381518110620003f757620003f662001099565b5b602002602001015173ffffffffffffffffffffffffffffffffffffffff160362000458576040517f08c379a00000000000000000000000000000000000000000000000000000000081526004016200044f9062001266565b60405180910390fd5b8080620004659062001288565b915050620003a3565b5080806200047c9062001288565b91505062000266565b5060008111620004cc576040517f08c379a0000000000000000000000000000000000000000000000000000000008152600401620004c39062001325565b60405180910390fd5b6000338888888888604051620004e29062000870565b620004f3969594939291906200149e565b604051809103906000f08015801562000510573d6000803e3d6000fd5b50905060008190506000819080600181540180825580915050600190039060005260206000200160009091909190916101000a81548173ffffffffffffffffffffffffffffffffffffffff021916908373ffffffffffffffffffffffffffffffffffffffff160217905550600160003373ffffffffffffffffffffffffffffffffffffffff1673ffffffffffffffffffffffffffffffffffffffff168152602001908152602001600020819080600181540180825580915050600190039060005260206000200160009091909190916101000a81548173ffffffffffffffffffffffffffffffffffffffff021916908373ffffffffffffffffffffffffffffffffffffffff1602179055503373ffffffffffffffffffffffffffffffffffffffff167fad18df30f3132b03867df5a99f60aea5bcb436a4dcfac07c4c6392e0777211f6828b8b8b8b6040516200066b95949392919062001520565b60405180910390a280935050505095945050505050565b606060008054806020026020016040519081016040528092919081815260200182805480156200070857602002820191906000526020600020905b8160009054906101000a900473ffffffffffffffffffffffffffffffffffffffff1673ffffffffffffffffffffffffffffffffffffffff1681526020019060010190808311620006bd575b5050505050905090565b6060600160008373ffffffffffffffffffffffffffffffffffffffff1673ffffffffffffffffffffffffffffffffffffffff168152602001908152602001600020805480602002602001604051908101604052809291908181526020018280548015620007d557602002820191906000526020600020905b8160009054906101000a900473ffffffffffffffffffffffffffffffffffffffff1673ffffffffffffffffffffffffffffffffffffffff16815260200190600101908083116200078a575b50505050509050919050565b60008181548110620007f257600080fd5b906000526020600020016000915054906101000a900473ffffffffffffffffffffffffffffffffffffffff1681565b600160205281600052604060002081815481106200083e57600080fd5b906000526020600020016000915091509054906101000a900473ffffffffffffffffffffffffffffffffffffffff1681565b612d03806200159383390190565b6000604051905090565b600080fd5b600080fd5b600080fd5b600080fd5b6000601f19601f8301169050919050565b7f4e487b7100000000000000000000000000000000000000000000000000000000600052604160045260246000fd5b620008e7826200089c565b810181811067ffffffffffffffff82111715620009095762000908620008ad565b5b80604052505050565b60006200091e6200087e565b90506200092c8282620008dc565b919050565b600067ffffffffffffffff8211156200094f576200094e620008ad565b5b6200095a826200089c565b9050602081019050919050565b82818337600083830152505050565b60006200098d620009878462000931565b62000912565b905082815260208101848484011115620009ac57620009ab62000897565b5b620009b984828562000967565b509392505050565b600082601f830112620009d957620009d862000892565b5b8135620009eb84826020860162000976565b91505092915050565b600073ffffffffffffffffffffffffffffffffffffffff82169050919050565b600062000a2182620009f4565b9050919050565b62000a338162000a14565b811462000a3f57600080fd5b50565b60008135905062000a538162000a28565b92915050565b600067ffffffffffffffff82111562000a775762000a76620008ad565b5b602082029050602081019050919050565b600080fd5b600062000aa462000a9e8462000a59565b62000912565b9050808382526020820190506020840283018581111562000aca5762000ac962000a88565b5b835b8181101562000af7578062000ae2888262000a42565b84526020840193505060208101905062000acc565b5050509392505050565b600082601f83011262000b195762000b1862000892565b5b813562000b2b84826020860162000a8d565b91505092915050565b600067ffffffffffffffff82111562000b525762000b51620008ad565b5b602082029050602081019050919050565b6000819050919050565b62000b788162000b63565b811462000b8457600080fd5b50565b60008135905062000b988162000b6d565b92915050565b600062000bb562000baf8462000b34565b62000912565b9050808382526020820190506020840283018581111562000bdb5762000bda62000a88565b5b835b8181101562000c08578062000bf3888262000b87565b84526020840193505060208101905062000bdd565b5050509392505050565b600082601f83011262000c2a5762000c2962000892565b5b813562000c3c84826020860162000b9e565b91505092915050565b60008115159050919050565b62000c5c8162000c45565b811462000c6857600080fd5b50565b60008135905062000c7c8162000c51565b92915050565b600080600080600060a0868803121562000ca15762000ca062000888565b5b600086013567ffffffffffffffff81111562000cc25762000cc16200088d565b5b62000cd088828901620009c1565b955050602062000ce38882890162000a42565b945050604086013567ffffffffffffffff81111562000d075762000d066200088d565b5b62000d158882890162000b01565b935050606086013567ffffffffffffffff81111562000d395762000d386200088d565b5b62000d478882890162000c12565b925050608062000d5a8882890162000c6b565b9150509295509295909350565b62000d728162000a14565b82525050565b600060208201905062000d8f600083018462000d67565b92915050565b600081519050919050565b600082825260208201905092915050565b6000819050602082019050919050565b62000dcc8162000a14565b82525050565b600062000de0838362000dc1565b60208301905092915050565b6000602082019050919050565b600062000e068262000d95565b62000e12818562000da0565b935062000e1f8362000db1565b8060005b8381101562000e5657815162000e3a888262000dd2565b975062000e478362000dec565b92505060018101905062000e23565b5085935050505092915050565b6000602082019050818103600083015262000e7f818462000df9565b905092915050565b60006020828403121562000ea05762000e9f62000888565b5b600062000eb08482850162000a42565b91505092915050565b60006020828403121562000ed25762000ed162000888565b5b600062000ee28482850162000b87565b91505092915050565b6000806040838503121562000f055762000f0462000888565b5b600062000f158582860162000a42565b925050602062000f288582860162000b87565b9150509250929050565b600082825260208201905092915050565b7f496e76616c696420746f6b656e00000000000000000000000000000000000000600082015250565b600062000f7b600d8362000f32565b915062000f888262000f43565b602082019050919050565b6000602082019050818103600083015262000fae8162000f6c565b9050919050565b7f4c656e677468206d69736d617463680000000000000000000000000000000000600082015250565b600062000fed600f8362000f32565b915062000ffa8262000fb5565b602082019050919050565b60006020820190508181036000830152620010208162000fde565b9050919050565b7f4e6f206d656d6265727300000000000000000000000000000000000000000000600082015250565b60006200105f600a8362000f32565b91506200106c8262001027565b602082019050919050565b60006020820190508181036000830152620010928162001050565b9050919050565b7f4e487b7100000000000000000000000000000000000000000000000000000000600052603260045260246000fd5b7f5a65726f206d656d626572000000000000000000000000000000000000000000600082015250565b600062001100600b8362000f32565b91506200110d82620010c8565b602082019050919050565b600060208201905081810360008301526200113381620010f1565b9050919050565b7f5a65726f20736861726500000000000000000000000000000000000000000000600082015250565b600062001172600a8362000f32565b91506200117f826200113a565b602082019050919050565b60006020820190508181036000830152620011a58162001163565b9050919050565b7f4e487b7100000000000000000000000000000000000000000000000000000000600052601160045260246000fd5b6000620011e88262000b63565b9150620011f58362000b63565b925082820190508082111562001210576200120f620011ac565b5b92915050565b7f4475706c6963617465206d656d62657200000000000000000000000000000000600082015250565b60006200124e60108362000f32565b91506200125b8262001216565b602082019050919050565b6000602082019050818103600083015262001281816200123f565b9050919050565b6000620012958262000b63565b91507fffffffffffffffffffffffffffffffffffffffffffffffffffffffffffffffff8203620012ca57620012c9620011ac565b5b600182019050919050565b7f496e76616c696420736861726573000000000000000000000000000000000000600082015250565b60006200130d600e8362000f32565b91506200131a82620012d5565b602082019050919050565b600060208201905081810360008301526200134081620012fe565b9050919050565b600081519050919050565b60005b838110156200137257808201518184015260208101905062001355565b60008484015250505050565b60006200138b8262001347565b62001397818562000f32565b9350620013a981856020860162001352565b620013b4816200089c565b840191505092915050565b600081519050919050565b600082825260208201905092915050565b6000819050602082019050919050565b620013f68162000b63565b82525050565b60006200140a8383620013eb565b60208301905092915050565b6000602082019050919050565b60006200143082620013bf565b6200143c8185620013ca565b93506200144983620013db565b8060005b8381101562001480578151620014648882620013fc565b9750620014718362001416565b9250506001810190506200144d565b5085935050505092915050565b620014988162000c45565b82525050565b600060c082019050620014b5600083018962000d67565b8181036020830152620014c981886200137e565b9050620014da604083018762000d67565b8181036060830152620014ee818662000df9565b9050818103608083015262001504818562001423565b90506200151560a08301846200148d565b979650505050505050565b600060a08201905062001537600083018862000d67565b81810360208301526200154b81876200137e565b90506200155c604083018662000d67565b818103606083015262001570818562000df9565b9050818103608083015262001586818462001423565b9050969550505050505056fe60806040523480156200001157600080fd5b5060405162002d0338038062002d03833981810160405281019062000037919062000775565b81518351146200007e576040517f08c379a00000000000000000000000000000000000000000000000000000000081526004016200007590620008cf565b60405180910390fd5b6000835111620000c5576040517f08c379a0000000000000000000000000000000000000000000000000000000008152600401620000bc9062000941565b60405180910390fd5b856000806101000a81548173ffffffffffffffffffffffffffffffffffffffff021916908373ffffffffffffffffffffffffffffffffffffffff160217905550846001908162000116919062000ba4565b5083600260006101000a81548173ffffffffffffffffffffffffffffffffffffffff021916908373ffffffffffffffffffffffffffffffffffffffff16021790555082600390805190602001906200017092919062000254565b50816004908051906020019062000189929190620002e3565b5080600660006101000a81548160ff02191690831515021790555060005b8251811015620001ff57828181518110620001c757620001c662000c8b565b5b602002602001015160056000828254620001e2919062000ce9565b925050819055508080620001f69062000d24565b915050620001a7565b5060006005541162000248576040517f08c379a00000000000000000000000000000000000000000000000000000000081526004016200023f9062000dc1565b60405180910390fd5b50505050505062000de3565b828054828255906000526020600020908101928215620002d0579160200282015b82811115620002cf5782518260006101000a81548173ffffffffffffffffffffffffffffffffffffffff021916908373ffffffffffffffffffffffffffffffffffffffff1602179055509160200191906001019062000275565b5b509050620002df919062000335565b5090565b82805482825590600052602060002090810192821562000322579160200282015b828111156200032157825182559160200191906001019062000304565b5b50905062000331919062000335565b5090565b5b808211156200035057600081600090555060010162000336565b5090565b6000604051905090565b600080fd5b600080fd5b600073ffffffffffffffffffffffffffffffffffffffff82169050919050565b6000620003958262000368565b9050919050565b620003a78162000388565b8114620003b357600080fd5b50565b600081519050620003c7816200039c565b92915050565b600080fd5b600080fd5b6000601f19601f8301169050919050565b7f4e487b7100000000000000000000000000000000000000000000000000000000600052604160045260246000fd5b6200042282620003d7565b810181811067ffffffffffffffff82111715620004445762000443620003e8565b5b80604052505050565b60006200045962000354565b905062000467828262000417565b919050565b600067ffffffffffffffff8211156200048a5762000489620003e8565b5b6200049582620003d7565b9050602081019050919050565b60005b83811015620004c2578082015181840152602081019050620004a5565b60008484015250505050565b6000620004e5620004df846200046c565b6200044d565b905082815260208101848484011115620005045762000503620003d2565b5b62000511848285620004a2565b509392505050565b600082601f830112620005315762000530620003cd565b5b815162000543848260208601620004ce565b91505092915050565b600067ffffffffffffffff8211156200056a5762000569620003e8565b5b602082029050602081019050919050565b600080fd5b60006200059762000591846200054c565b6200044d565b90508083825260208201905060208402830185811115620005bd57620005bc6200057b565b5b835b81811015620005ea5780620005d58882620003b6565b845260208401935050602081019050620005bf565b5050509392505050565b600082601f8301126200060c576200060b620003cd565b5b81516200061e84826020860162000580565b91505092915050565b600067ffffffffffffffff821115620006455762000644620003e8565b5b602082029050602081019050919050565b6000819050919050565b6200066b8162000656565b81146200067757600080fd5b50565b6000815190506200068b8162000660565b92915050565b6000620006a8620006a28462000627565b6200044d565b90508083825260208201905060208402830185811115620006ce57620006cd6200057b565b5b835b81811015620006fb5780620006e688826200067a565b845260208401935050602081019050620006d0565b5050509392505050565b600082601f8301126200071d576200071c620003cd565b5b81516200072f84826020860162000691565b91505092915050565b60008115159050919050565b6200074f8162000738565b81146200075b57600080fd5b50565b6000815190506200076f8162000744565b92915050565b60008060008060008060c087890312156200079557620007946200035e565b5b6000620007a589828a01620003b6565b965050602087015167ffffffffffffffff811115620007c957620007c862000363565b5b620007d789828a0162000519565b9550506040620007ea89828a01620003b6565b945050606087015167ffffffffffffffff8111156200080e576200080d62000363565b5b6200081c89828a01620005f4565b935050608087015167ffffffffffffffff81111562000840576200083f62000363565b5b6200084e89828a0162000705565b92505060a06200086189828a016200075e565b9150509295509295509295565b600082825260208201905092915050565b7f4c656e677468206d69736d617463680000000000000000000000000000000000600082015250565b6000620008b7600f836200086e565b9150620008c4826200087f565b602082019050919050565b60006020820190508181036000830152620008ea81620008a8565b9050919050565b7f4e6f206d656d6265727300000000000000000000000000000000000000000000600082015250565b600062000929600a836200086e565b91506200093682620008f1565b602082019050919050565b600060208201905081810360008301526200095c816200091a565b9050919050565b600081519050919050565b7f4e487b7100000000000000000000000000000000000000000000000000000000600052602260045260246000fd5b60006002820490506001821680620009b657607f821691505b602082108103620009cc57620009cb6200096e565b5b50919050565b60008190508160005260206000209050919050565b60006020601f8301049050919050565b600082821b905092915050565b60006008830262000a367fffffffffffffffffffffffffffffffffffffffffffffffffffffffffffffffff82620009f7565b62000a428683620009f7565b95508019841693508086168417925050509392505050565b6000819050919050565b600062000a8562000a7f62000a798462000656565b62000a5a565b62000656565b9050919050565b6000819050919050565b62000aa18362000a64565b62000ab962000ab08262000a8c565b84845462000a04565b825550505050565b600090565b62000ad062000ac1565b62000add81848462000a96565b505050565b5b8181101562000b055762000af960008262000ac6565b60018101905062000ae3565b5050565b601f82111562000b545762000b1e81620009d2565b62000b2984620009e7565b8101602085101562000b39578190505b62000b5162000b4885620009e7565b83018262000ae2565b50505b505050565b600082821c905092915050565b600062000b796000198460080262000b59565b1980831691505092915050565b600062000b94838362000b66565b9150826002028217905092915050565b62000baf8262000963565b67ffffffffffffffff81111562000bcb5762000bca620003e8565b5b62000bd782546200099d565b62000be482828562000b09565b600060209050601f83116001811462000c1c576000841562000c07578287015190505b62000c13858262000b86565b86555062000c83565b601f19841662000c2c86620009d2565b60005b8281101562000c565784890151825560018201915060208501945060208101905062000c2f565b8683101562000c76578489015162000c72601f89168262000b66565b8355505b6001600288020188555050505b505050505050565b7f4e487b7100000000000000000000000000000000000000000000000000000000600052603260045260246000fd5b7f4e487b7100000000000000000000000000000000000000000000000000000000600052601160045260246000fd5b600062000cf68262000656565b915062000d038362000656565b925082820190508082111562000d1e5762000d1d62000cba565b5b92915050565b600062000d318262000656565b91507fffffffffffffffffffffffffffffffffffffffffffffffffffffffffffffffff820362000d665762000d6562000cba565b5b600182019050919050565b7f496e76616c696420736861726573000000000000000000000000000000000000600082015250565b600062000da9600e836200086e565b915062000db68262000d71565b602082019050919050565b6000602082019050818103600083015262000ddc8162000d9a565b9050919050565b611f108062000df36000396000f3fe608060405234801561001057600080fd5b50600436106100ea5760003560e01c8063a5e047b81161008c578063e2eab48311610066578063e2eab48314610255578063e4fc6b6d14610271578063e5bc026c1461027b578063fc0c546a14610297576100ea565b8063a5e047b8146101e6578063a8f11eb914610219578063b651bb6114610237576100ea565b80635daf08ca116100c85780635daf08ca1461015b5780636f9fb98a1461018b5780638da5cb5b146101a95780639eab5253146101c7576100ea565b806306fdde03146100ef5780633a98ef391461010d57806357a858fc1461012b575b600080fd5b6100f76102b5565b604051610104919061113c565b60405180910390f35b610115610343565b6040516101229190611177565b60405180910390f35b610145600480360381019061014091906111d2565b610349565b6040516101529190611177565b60405180910390f35b610175600480360381019061017091906111d2565b61036d565b6040516101829190611240565b60405180910390f35b6101936103ac565b6040516101a09190611177565b60405180910390f35b6101b161044f565b6040516101be9190611240565b60405180910390f35b6101cf610473565b6040516101dd9291906113d7565b60405180910390f35b61020060048036038101906101fb91906111d2565b61055c565b6040516102109493929190611429565b60405180910390f35b6102216105c9565b60405161022e919061146e565b60405180910390f35b61023f6105dc565b60405161024c919061159c565b60405180910390f35b61026f600480360381019061026a91906111d2565b6106c0565b005b610279610937565b005b610295600480360381019061029091906117f5565b6109cf565b005b61029f610c06565b6040516102ac9190611240565b60405180910390f35b600180546102c29061189c565b80601f01602080910402602001604051908101604052809291908181526020018280546102ee9061189c565b801561033b5780601f106103105761010080835404028352916020019161033b565b820191906000526020600020905b81548152906001019060200180831161031e57829003601f168201915b505050505081565b60055481565b6004818154811061035957600080fd5b906000526020600020016000915090505481565b6003818154811061037d57600080fd5b906000526020600020016000915054906101000a900473ffffffffffffffffffffffffffffffffffffffff1681565b6000600260009054906101000a900473ffffffffffffffffffffffffffffffffffffffff1673ffffffffffffffffffffffffffffffffffffffff166370a08231306040518263ffffffff1660e01b81526004016104099190611240565b602060405180830381865afa158015610426573d6000803e3d6000fd5b505050506040513d601f19601f8201168201806040525081019061044a91906118e2565b905090565b60008054906101000a900473ffffffffffffffffffffffffffffffffffffffff1681565b60608060036004818054806020026020016040519081016040528092919081815260200182805480156104fb57602002820191906000526020600020905b8160009054906101000a900473ffffffffffffffffffffffffffffffffffffffff1673ffffffffffffffffffffffffffffffffffffffff16815260200190600101908083116104b1575b505050505091508080548060200260200160405190810160405280929190818152602001828054801561054d57602002820191906000526020600020905b815481526020019060010190808311610539575b50505050509050915091509091565b6007818154811061056c57600080fd5b90600052602060002090600402016000915090508060000154908060010160009054906101000a900473ffffffffffffffffffffffffffffffffffffffff16908060020154908060030160009054906101000a900460ff16905084565b600660009054906101000a900460ff1681565b60606007805480602002602001604051908101604052809291908181526020016000905b828210156106b75783829060005260206000209060040201604051806080016040529081600082015481526020016001820160009054906101000a900473ffffffffffffffffffffffffffffffffffffffff1673ffffffffffffffffffffffffffffffffffffffff1673ffffffffffffffffffffffffffffffffffffffff168152602001600282015481526020016003820160009054906101000a900460ff16151515158152505081526020019060010190610600565b50505050905090565b60008111610703576040517f08c379a00000000000000000000000000000000000000000000000000000000081526004016106fa9061195b565b60405180910390fd5b600260009054906101000a900473ffffffffffffffffffffffffffffffffffffffff1673ffffffffffffffffffffffffffffffffffffffff166323b872dd3330846040518463ffffffff1660e01b81526004016107629392919061197b565b6020604051808303816000875af1158015610781573d6000803e3d6000fd5b505050506040513d601f19601f820116820180604052508101906107a591906119de565b6107e4576040517f08c379a00000000000000000000000000000000000000000000000000000000081526004016107db90611a57565b60405180910390fd5b600760405180608001604052808381526020013373ffffffffffffffffffffffffffffffffffffffff1681526020014281526020016000151581525090806001815401808255809150506001900390600052602060002090600402016000909190919091506000820151816000015560208201518160010160006101000a81548173ffffffffffffffffffffffffffffffffffffffff021916908373ffffffffffffffffffffffffffffffffffffffff1602179055506040820151816002015560608201518160030160006101000a81548160ff02191690831515021790555050503373ffffffffffffffffffffffffffffffffffffffff167f5677b5d4cf976ac32defbd95a6a5aaf0d1fee450a11fc26f3c11aae6e6c33d06824260405161090e929190611a77565b60405180910390a2600660009054906101000a900460ff161561093457610933610c2c565b5b50565b60008054906101000a900473ffffffffffffffffffffffffffffffffffffffff1673ffffffffffffffffffffffffffffffffffffffff163373ffffffffffffffffffffffffffffffffffffffff16146109c5576040517f08c379a00000000000000000000000000000000000000000000000000000000081526004016109bc90611aec565b60405180910390fd5b6109cd610c2c565b565b60008054906101000a900473ffffffffffffffffffffffffffffffffffffffff1673ffffffffffffffffffffffffffffffffffffffff163373ffffffffffffffffffffffffffffffffffffffff1614610a5d576040517f08c379a0000000000000000000000000000000000000000000000000000000008152600401610a5490611aec565b60405180910390fd5b8051825114610aa1576040517f08c379a0000000000000000000000000000000000000000000000000000000008152600401610a9890611b58565b60405180910390fd5b6000825111610ae5576040517f08c379a0000000000000000000000000000000000000000000000000000000008152600401610adc90611bc4565b60405180910390fd5b60036000610af39190610f76565b60046000610b019190610f97565b600080600090505b8251811015610b4d57828181518110610b2557610b24611be4565b5b602002602001015182610b389190611c42565b91508080610b4590611c76565b915050610b09565b5060008111610b91576040517f08c379a0000000000000000000000000000000000000000000000000000000008152600401610b8890611d0a565b60405180910390fd5b8260039080519060200190610ba7929190610fb8565b508160049080519060200190610bbe929190611042565b50806005819055507fb5987e14cc4462376bac010c8537a1113f3be1789ed8a05669a885bd397c7248838342604051610bf993929190611d2a565b60405180910390a1505050565b600260009054906101000a900473ffffffffffffffffffffffffffffffffffffffff1681565b6000600260009054906101000a900473ffffffffffffffffffffffffffffffffffffffff1673ffffffffffffffffffffffffffffffffffffffff166370a08231306040518263ffffffff1660e01b8152600401610c899190611240565b602060405180830381865afa158015610ca6573d6000803e3d6000fd5b505050506040513d601f19601f82011682018060405250810190610cca91906118e2565b905060008111610d0f576040517f08c379a0000000000000000000000000000000000000000000000000000000008152600401610d0690611dbb565b60405180910390fd5b60005b600380549050811015610f2357600060055460048381548110610d3857610d37611be4565b5b906000526020600020015484610d4e9190611ddb565b610d589190611e4c565b90506000811115610f0f57600260009054906101000a900473ffffffffffffffffffffffffffffffffffffffff1673ffffffffffffffffffffffffffffffffffffffff1663a9059cbb60038481548110610db557610db4611be4565b5b9060005260206000200160009054906101000a900473ffffffffffffffffffffffffffffffffffffffff16836040518363ffffffff1660e01b8152600401610dfe929190611e7d565b6020604051808303816000875af1158015610e1d573d6000803e3d6000fd5b505050506040513d601f19601f82011682018060405250810190610e4191906119de565b610e80576040517f08c379a0000000000000000000000000000000000000000000000000000000008152600401610e7790611a57565b60405180910390fd5b60038281548110610e9457610e93611be4565b5b9060005260206000200160009054906101000a900473ffffffffffffffffffffffffffffffffffffffff1673ffffffffffffffffffffffffffffffffffffffff167f53a4b3b986592f6a7933513b88a2683a90aebe3188aa2c0be0e9592f42f0b38e8242604051610f06929190611a77565b60405180910390a25b508080610f1b90611c76565b915050610d12565b50600160076001600780549050610f3a9190611ea6565b81548110610f4b57610f4a611be4565b5b906000526020600020906004020160030160006101000a81548160ff02191690831515021790555050565b5080546000825590600052602060002090810190610f94919061108f565b50565b5080546000825590600052602060002090810190610fb5919061108f565b50565b828054828255906000526020600020908101928215611031579160200282015b828111156110305782518260006101000a81548173ffffffffffffffffffffffffffffffffffffffff021916908373ffffffffffffffffffffffffffffffffffffffff16021790555091602001919060010190610fd8565b5b50905061103e919061108f565b5090565b82805482825590600052602060002090810192821561107e579160200282015b8281111561107d578251825591602001919060010190611062565b5b50905061108b919061108f565b5090565b5b808211156110a8576000816000905550600101611090565b5090565b600081519050919050565b600082825260208201905092915050565b60005b838110156110e65780820151818401526020810190506110cb565b60008484015250505050565b6000601f19601f8301169050919050565b600061110e826110ac565b61111881856110b7565b93506111288185602086016110c8565b611131816110f2565b840191505092915050565b600060208201905081810360008301526111568184611103565b905092915050565b6000819050919050565b6111718161115e565b82525050565b600060208201905061118c6000830184611168565b92915050565b6000604051905090565b600080fd5b600080fd5b6111af8161115e565b81146111ba57600080fd5b50565b6000813590506111cc816111a6565b92915050565b6000602082840312156111e8576111e761119c565b5b60006111f6848285016111bd565b91505092915050565b600073ffffffffffffffffffffffffffffffffffffffff82169050919050565b600061122a826111ff565b9050919050565b61123a8161121f565b82525050565b60006020820190506112556000830184611231565b92915050565b600081519050919050565b600082825260208201905092915050565b6000819050602082019050919050565b6112908161121f565b82525050565b60006112a28383611287565b60208301905092915050565b6000602082019050919050565b60006112c68261125b565b6112d08185611266565b93506112db83611277565b8060005b8381101561130c5781516112f38882611296565b97506112fe836112ae565b9250506001810190506112df565b5085935050505092915050565b600081519050919050565b600082825260208201905092915050565b6000819050602082019050919050565b61134e8161115e565b82525050565b60006113608383611345565b60208301905092915050565b6000602082019050919050565b600061138482611319565b61138e8185611324565b935061139983611335565b8060005b838110156113ca5781516113b18882611354565b97506113bc8361136c565b92505060018101905061139d565b5085935050505092915050565b600060408201905081810360008301526113f181856112bb565b905081810360208301526114058184611379565b90509392505050565b60008115159050919050565b6114238161140e565b82525050565b600060808201905061143e6000830187611168565b61144b6020830186611231565b6114586040830185611168565b611465606083018461141a565b95945050505050565b6000602082019050611483600083018461141a565b92915050565b600081519050919050565b600082825260208201905092915050565b6000819050602082019050919050565b6114be8161140e565b82525050565b6080820160008201516114da6000850182611345565b5060208201516114ed6020850182611287565b5060408201516115006040850182611345565b50606082015161151360608501826114b5565b50505050565b600061152583836114c4565b60808301905092915050565b6000602082019050919050565b600061154982611489565b6115538185611494565b935061155e836114a5565b8060005b8381101561158f5781516115768882611519565b975061158183611531565b925050600181019050611562565b5085935050505092915050565b600060208201905081810360008301526115b6818461153e565b905092915050565b600080fd5b7f4e487b7100000000000000000000000000000000000000000000000000000000600052604160045260246000fd5b6115fb826110f2565b810181811067ffffffffffffffff8211171561161a576116196115c3565b5b80604052505050565b600061162d611192565b905061163982826115f2565b919050565b600067ffffffffffffffff821115611659576116586115c3565b5b602082029050602081019050919050565b600080fd5b6116788161121f565b811461168357600080fd5b50565b6000813590506116958161166f565b92915050565b60006116ae6116a98461163e565b611623565b905080838252602082019050602084028301858111156116d1576116d061166a565b5b835b818110156116fa57806116e68882611686565b8452602084019350506020810190506116d3565b5050509392505050565b600082601f830112611719576117186115be565b5b813561172984826020860161169b565b91505092915050565b600067ffffffffffffffff82111561174d5761174c6115c3565b5b602082029050602081019050919050565b600061177161176c84611732565b611623565b905080838252602082019050602084028301858111156117945761179361166a565b5b835b818110156117bd57806117a988826111bd565b845260208401935050602081019050611796565b5050509392505050565b600082601f8301126117dc576117db6115be565b5b81356117ec84826020860161175e565b91505092915050565b6000806040838503121561180c5761180b61119c565b5b600083013567ffffffffffffffff81111561182a576118296111a1565b5b61183685828601611704565b925050602083013567ffffffffffffffff811115611857576118566111a1565b5b611863858286016117c7565b9150509250929050565b7f4e487b7100000000000000000000000000000000000000000000000000000000600052602260045260246000fd5b600060028204905060018216806118b457607f821691505b6020821081036118c7576118c661186d565b5b50919050565b6000815190506118dc816111a6565b92915050565b6000602082840312156118f8576118f761119c565b5b6000611906848285016118cd565b91505092915050565b7f496e76616c696420616d6f756e74000000000000000000000000000000000000600082015250565b6000611945600e836110b7565b91506119508261190f565b602082019050919050565b6000602082019050818103600083015261197481611938565b9050919050565b60006060820190506119906000830186611231565b61199d6020830185611231565b6119aa6040830184611168565b949350505050565b6119bb8161140e565b81146119c657600080fd5b50565b6000815190506119d8816119b2565b92915050565b6000602082840312156119f4576119f361119c565b5b6000611a02848285016119c9565b91505092915050565b7f5472616e73666572206661696c65640000000000000000000000000000000000600082015250565b6000611a41600f836110b7565b9150611a4c82611a0b565b602082019050919050565b60006020820190508181036000830152611a7081611a34565b9050919050565b6000604082019050611a8c6000830185611168565b611a996020830184611168565b9392505050565b7f4f6e6c79206f776e657200000000000000000000000000000000000000000000600082015250565b6000611ad6600a836110b7565b9150611ae182611aa0565b602082019050919050565b60006020820190508181036000830152611b0581611ac9565b9050919050565b7f4c656e677468206d69736d617463680000000000000000000000000000000000600082015250565b6000611b42600f836110b7565b9150611b4d82611b0c565b602082019050919050565b60006020820190508181036000830152611b7181611b35565b9050919050565b7f4e6f206d656d6265727300000000000000000000000000000000000000000000600082015250565b6000611bae600a836110b7565b9150611bb982611b78565b602082019050919050565b60006020820190508181036000830152611bdd81611ba1565b9050919050565b7f4e487b7100000000000000000000000000000000000000000000000000000000600052603260045260246000fd5b7f4e487b7100000000000000000000000000000000000000000000000000000000600052601160045260246000fd5b6000611c4d8261115e565b9150611c588361115e565b9250828201905080821115611c7057611c6f611c13565b5b92915050565b6000611c818261115e565b91507fffffffffffffffffffffffffffffffffffffffffffffffffffffffffffffffff8203611cb357611cb2611c13565b5b600182019050919050565b7f496e76616c696420736861726573000000000000000000000000000000000000600082015250565b6000611cf4600e836110b7565b9150611cff82611cbe565b602082019050919050565b60006020820190508181036000830152611d2381611ce7565b9050919050565b60006060820190508181036000830152611d4481866112bb565b90508181036020830152611d588185611379565b9050611d676040830184611168565b949350505050565b7f4e6f2062616c616e636500000000000000000000000000000000000000000000600082015250565b6000611da5600a836110b7565b9150611db082611d6f565b602082019050919050565b60006020820190508181036000830152611dd481611d98565b9050919050565b6000611de68261115e565b9150611df18361115e565b9250828202611dff8161115e565b91508282048414831517611e1657611e15611c13565b5b5092915050565b7f4e487b7100000000000000000000000000000000000000000000000000000000600052601260045260246000fd5b6000611e578261115e565b9150611e628361115e565b925082611e7257611e71611e1d565b5b828204905092915050565b6000604082019050611e926000830185611231565b611e9f6020830184611168565b9392505050565b6000611eb18261115e565b9150611ebc8361115e565b9250828203905081811115611ed457611ed3611c13565b5b9291505056fea2646970667358221220f1eeed06207eb73d544218975b46119bfdc43e2ced7140042f3b2008ef20ba6664736f6c63430008130033a2646970667358221220b4b2184d773bb8752bc56c08760a74347e38c0b4a73758b29ba208f89975511064736f6c63430008130033",
  "linkReferences": {},
  "deployedLinkReferences": {}
}