{
  "_format": "hh-sol-artifact-1",
  "contractName": "Treasury",
  "sourceName": "contracts/Treasury.sol",
  "abi": [
    {
      "inputs": [],
      "stateMutability": "nonpayable",
      "type": "constructor"
    },
    {
      "anonymous": false,
      "inputs": [
        {
          "indexed": true,
          "internalType": "uint256",
          "name": "id",
          "type": "uint256"
        },
        {
          "indexed": false,
          "internalType": "address",
          "name": "splitter",
          "type": "address"
        },
        {
          "indexed": false,
          "internalType": "uint256",
          "name": "amount",
          "type": "uint256"
        }
      ],
      "name": "PaymentExecuted",
      "type": "event"
    },
    {
      "anonymous": false,
      "inputs": [
        {
          "indexed": true,
          "internalType": "uint256",
          "name": "id",
          "type": "uint256"
        },
        {
          "indexed": false,
          "internalType": "address",
          "name": "splitter",
          "type": "address"
        },
        {
          "indexed": false,
          "internalType": "uint256",
          "name": "amount",
          "type": "uint256"
        },
        {
          "indexed": false,
          "internalType": "uint256",
          "name": "scheduleTime",
          "type": "uint256"
        }
      ],
      "name": "ScheduledPaymentCreated",
      "type": "event"
    },
    {
      "inputs": [
        {
          "internalType": "address",
          "name": "account",
          "type": "address"
        }
      ],
      "name": "authorize",
      "outputs": [],
      "stateMutability": "nonpayable",
      "type": "function"
    },
    {
      "inputs": [
        {
          "internalType": "address",
          "name": "",
          "type": "address"
        }
      ],
      "name": "authorized",
      "outputs": [
        {
          "internalType": "bool",
          "name": "",
          "type": "bool"
        }
      ],
      "stateMutability": "view",
      "type": "function"
    },
    {
      "inputs": [
        {
          "internalType": "uint256[]",
          "name": "ids",
          "type": "uint256[]"
        }
      ],
      "name": "batchExecutePayments",
      "outputs": [],
      "stateMutability": "nonpayable",
      "type": "function"
    },
    {
      "inputs": [
        {
          "internalType": "uint256",
          "name": "id",
          "type": "uint256"
        }
      ],
      "name": "executeScheduledPayment",
      "outputs": [],
      "stateMutability": "nonpayable",
      "type": "function"
    },
    {
      "inputs": [],
      "name": "getScheduledPayments",
      "outputs": [
        {
          "components": [
            {
              "internalType": "address",
              "name": "splitter",
              "type": "address"
            },
            {
              "internalType": "uint256",
              "name": "amount",
              "type": "uint256"
            },
            {
              "internalType": "uint256",
              "name": "scheduleTime",
              "type": "uint256"
            },
            {
              "internalType": "bool",
              "name": "executed",
              "type": "bool"
            }
          ],
          "internalType": "struct Treasury.ScheduledPayment[]",
          "name": "",
          "type": "tuple[]"
        }
      ],
      "stateMutability": "view",
      "type": "function"
    },
    {
      "inputs": [],
      "name": "owner",
      "outputs": [
        {
          "internalType": "address",
          "name": "",
          "type": "address"
        }
      ],
      "stateMutability": "view",
      "type": "function"
    },
    {
      "inputs": [
        {
          "internalType": "address",
          "name": "account",
          "type": "address"
        }
      ],
      "name": "revokeAuthorization",
      "outputs": [],
      "stateMutability": "nonpayable",
      "type": "function"
    },
    {
      "inputs": [
        {
          "internalType": "address",
          "name": "splitter",
          "type": "address"
        },
        {
          "internalType": "uint256",
          "name": "amount",
          "type": "uint256"
        },
        {
          "internalType": "uint256",
          "name": "scheduleTime",
          "type": "uint256"
        }
      ],
      "name": "schedulePayment",
      "outputs": [
        {
          "internalType": "uint256",
          "name": "",
          "type": "uint256"
        }
      ],
      "stateMutability": "nonpayable",
      "type": "function"
    },
    {
      "inputs": [
        {
          "internalType": "uint256",
          "name": "",
          "type": "uint256"
        }
      ],
      "name": "scheduledPayments",
      "outputs": [
        {
          "internalType": "address",
          "name": "splitter",
          "type": "address"
        },
        {
          "internalType": "uint256",
          "name": "amount",
          "type": "uint256"
        },
        {
          "internalType": "uint256",
          "name": "scheduleTime",
          "type": "uint256"
        },
        {
          "internalType": "bool",
          "name": "executed",
          "type": "bool"
        }
      ],
      "stateMutability": "view",
      "type": "function"
    }
  ],
  "bytecode": "0x608060405234801561001057600080fd5b50336000806101000a81548173ffffffffffffffffffffffffffffffffffffffff021916908373ffffffffffffffffffffffffffffffffffffffff16021790555060018060003373ffffffffffffffffffffffffffffffffffffffff1673ffffffffffffffffffffffffffffffffffffffff16815260200190815260200160002060006101000a81548160ff021916908315150217905550611685806100b76000396000f3fe608060405234801561001057600080fd5b50600436106100935760003560e01c8063b48028e311610066578063b48028e314610137578063b6a5d7de14610153578063b91816111461016f578063d2cba11d1461019f578063fb8cf5d6146101bb57610093565b80633ae421a1146100985780633c258520146100c85780633fcd15f7146100fb5780638da5cb5b14610119575b600080fd5b6100b260048036038101906100ad9190610ea7565b6101d7565b6040516100bf9190610f09565b60405180910390f35b6100e260048036038101906100dd9190610f24565b610431565b6040516100f29493929190610f7b565b60405180910390f35b61010361049e565b60405161011091906110f1565b60405180910390f35b610121610582565b60405161012e9190611113565b60405180910390f35b610151600480360381019061014c919061112e565b6105a6565b005b61016d6004803603810190610168919061112e565b6106e3565b005b6101896004803603810190610184919061112e565b61081f565b604051610196919061115b565b60405180910390f35b6101b960048036038101906101b491906111db565b61083f565b005b6101d560048036038101906101d09190610f24565b610a2f565b005b60008060009054906101000a900473ffffffffffffffffffffffffffffffffffffffff1673ffffffffffffffffffffffffffffffffffffffff163373ffffffffffffffffffffffffffffffffffffffff16148061027d5750600160003373ffffffffffffffffffffffffffffffffffffffff1673ffffffffffffffffffffffffffffffffffffffff16815260200190815260200160002060009054906101000a900460ff165b6102bc576040517f08c379a00000000000000000000000000000000000000000000000000000000081526004016102b390611285565b60405180910390fd5b4282116102fe576040517f08c379a00000000000000000000000000000000000000000000000000000000081526004016102f5906112f1565b60405180910390fd5b60006002805490509050600260405180608001604052808773ffffffffffffffffffffffffffffffffffffffff16815260200186815260200185815260200160001515815250908060018154018082558091505060019003906000526020600020906004020160009091909190915060008201518160000160006101000a81548173ffffffffffffffffffffffffffffffffffffffff021916908373ffffffffffffffffffffffffffffffffffffffff160217905550602082015181600101556040820151816002015560608201518160030160006101000a81548160ff0219169083151502179055505050807fff2ad82f817d3251e1fefb93440b6461e89e5b52367c2bc31f1f3b82b008f7e786868660405161041e93929190611311565b60405180910390a2809150509392505050565b6002818154811061044157600080fd5b90600052602060002090600402016000915090508060000160009054906101000a900473ffffffffffffffffffffffffffffffffffffffff16908060010154908060020154908060030160009054906101000a900460ff16905084565b60606002805480602002602001604051908101604052809291908181526020016000905b8282101561057957838290600052602060002090600402016040518060800160405290816000820160009054906101000a900473ffffffffffffffffffffffffffffffffffffffff1673ffffffffffffffffffffffffffffffffffffffff1673ffffffffffffffffffffffffffffffffffffffff16815260200160018201548152602001600282015481526020016003820160009054906101000a900460ff161515151581525050815260200190600101906104c2565b50505050905090565b60008054906101000a900473ffffffffffffffffffffffffffffffffffffffff1681565b60008054906101000a900473ffffffffffffffffffffffffffffffffffffffff1673ffffffffffffffffffffffffffffffffffffffff163373ffffffffffffffffffffffffffffffffffffffff1614806106495750600160003373ffffffffffffffffffffffffffffffffffffffff1673ffffffffffffffffffffffffffffffffffffffff16815260200190815260200160002060009054906101000a900460ff165b610688576040517f08c379a000000000000000000000000000000000000000000000000000000000815260040161067f90611285565b60405180910390fd5b6000600160008373ffffffffffffffffffffffffffffffffffffffff1673ffffffffffffffffffffffffffffffffffffffff16815260200190815260200160002060006101000a81548160ff02191690831515021790555050565b60008054906101000a900473ffffffffffffffffffffffffffffffffffffffff1673ffffffffffffffffffffffffffffffffffffffff163373ffffffffffffffffffffffffffffffffffffffff1614806107865750600160003373ffffffffffffffffffffffffffffffffffffffff1673ffffffffffffffffffffffffffffffffffffffff16815260200190815260200160002060009054906101000a900460ff165b6107c5576040517f08c379a00000000000000000000000000000000000000000000000000000000081526004016107bc90611285565b60405180910390fd5b60018060008373ffffffffffffffffffffffffffffffffffffffff1673ffffffffffffffffffffffffffffffffffffffff16815260200190815260200160002060006101000a81548160ff02191690831515021790555050565b60016020528060005260406000206000915054906101000a900460ff1681565b60008054906101000a900473ffffffffffffffffffffffffffffffffffffffff1673ffffffffffffffffffffffffffffffffffffffff163373ffffffffffffffffffffffffffffffffffffffff1614806108e25750600160003373ffffffffffffffffffffffffffffffffffffffff1673ffffffffffffffffffffffffffffffffffffffff16815260200190815260200160002060009054906101000a900460ff165b610921576040517f08c379a000000000000000000000000000000000000000000000000000000000815260040161091890611285565b60405180910390fd5b60005b82829050811015610a2a5760028054905083838381811061094857610947611348565b5b905060200201351080156109a55750600283838381811061096c5761096b611348565b5b905060200201358154811061098457610983611348565b5b906000526020600020906004020160030160009054906101000a900460ff16155b80156109ef575060028383838181106109c1576109c0611348565b5b90506020020135815481106109d9576109d8611348565b5b9060005260206000209060040201600201544210155b15610a1757610a16838383818110610a0a57610a09611348565b5b90506020020135610b1d565b5b8080610a22906113a6565b915050610924565b505050565b60008054906101000a900473ffffffffffffffffffffffffffffffffffffffff1673ffffffffffffffffffffffffffffffffffffffff163373ffffffffffffffffffffffffffffffffffffffff161480610ad25750600160003373ffffffffffffffffffffffffffffffffffffffff1673ffffffffffffffffffffffffffffffffffffffff16815260200190815260200160002060009054906101000a900460ff165b610b11576040517f08c379a0000000000000000000000000000000000000000000000000000000008152600401610b0890611285565b60405180910390fd5b610b1a81610b1d565b50565b6002805490508110610b64576040517f08c379a0000000000000000000000000000000000000000000000000000000008152600401610b5b9061143a565b60405180910390fd5b600060028281548110610b7a57610b79611348565b5b906000526020600020906004020190508060030160009054906101000a900460ff1615610bdc576040517f08c379a0000000000000000000000000000000000000000000000000000000008152600401610bd3906114a6565b60405180910390fd5b8060020154421015610c23576040517f08c379a0000000000000000000000000000000000000000000000000000000008152600401610c1a90611512565b60405180910390fd5b60008160000160009054906101000a900473ffffffffffffffffffffffffffffffffffffffff1673ffffffffffffffffffffffffffffffffffffffff168260010154604051602401610c759190610f09565b6040516020818303038152906040527fe2eab483000000000000000000000000000000000000000000000000000000007bffffffffffffffffffffffffffffffffffffffffffffffffffffffff19166020820180517bffffffffffffffffffffffffffffffffffffffffffffffffffffffff8381831617835250505050604051610cff91906115a3565b6000604051808303816000865af19150503d8060008114610d3c576040519150601f19603f3d011682016040523d82523d6000602084013e610d41565b606091505b5050905080610d85576040517f08c379a0000000000000000000000000000000000000000000000000000000008152600401610d7c90611606565b60405180910390fd5b60018260030160006101000a81548160ff021916908315150217905550827f7f5bfe3018715b26a7067888a5c42912fbb3485170b8154ea9a448661f2f0de28360000160009054906101000a900473ffffffffffffffffffffffffffffffffffffffff168460010154604051610dfc929190611626565b60405180910390a2505050565b600080fd5b600080fd5b600073ffffffffffffffffffffffffffffffffffffffff82169050919050565b6000610e3e82610e13565b9050919050565b610e4e81610e33565b8114610e5957600080fd5b50565b600081359050610e6b81610e45565b92915050565b6000819050919050565b610e8481610e71565b8114610e8f57600080fd5b50565b600081359050610ea181610e7b565b92915050565b600080600060608486031215610ec057610ebf610e09565b5b6000610ece86828701610e5c565b9350506020610edf86828701610e92565b9250506040610ef086828701610e92565b9150509250925092565b610f0381610e71565b82525050565b6000602082019050610f1e6000830184610efa565b92915050565b600060208284031215610f3a57610f39610e09565b5b6000610f4884828501610e92565b91505092915050565b610f5a81610e33565b82525050565b60008115159050919050565b610f7581610f60565b82525050565b6000608082019050610f906000830187610f51565b610f9d6020830186610efa565b610faa6040830185610efa565b610fb76060830184610f6c565b95945050505050565b600081519050919050565b600082825260208201905092915050565b6000819050602082019050919050565b610ff581610e33565b82525050565b61100481610e71565b82525050565b61101381610f60565b82525050565b60808201600082015161102f6000850182610fec565b5060208201516110426020850182610ffb565b5060408201516110556040850182610ffb565b506060820151611068606085018261100a565b50505050565b600061107a8383611019565b60808301905092915050565b6000602082019050919050565b600061109e82610fc0565b6110a88185610fcb565b93506110b383610fdc565b8060005b838110156110e45781516110cb888261106e565b97506110d683611086565b9250506001810190506110b7565b5085935050505092915050565b6000602082019050818103600083015261110b8184611093565b905092915050565b60006020820190506111286000830184610f51565b92915050565b60006020828403121561114457611143610e09565b5b600061115284828501610e5c565b91505092915050565b60006020820190506111706000830184610f6c565b92915050565b600080fd5b600080fd5b600080fd5b60008083601f84011261119b5761119a611176565b5b8235905067ffffffffffffffff8111156111b8576111b761117b565b5b6020830191508360208202830111156111d4576111d3611180565b5b9250929050565b600080602083850312156111f2576111f1610e09565b5b600083013567ffffffffffffffff8111156112105761120f610e0e565b5b61121c85828601611185565b92509250509250929050565b600082825260208201905092915050565b7f4e6f7420617574686f72697a6564000000000000000000000000000000000000600082015250565b600061126f600e83611228565b915061127a82611239565b602082019050919050565b6000602082019050818103600083015261129e81611262565b9050919050565b7f5363686564756c652074696d65206d7573742062652066757475726500000000600082015250565b60006112db601c83611228565b91506112e6826112a5565b602082019050919050565b6000602082019050818103600083015261130a816112ce565b9050919050565b60006060820190506113266000830186610f51565b6113336020830185610efa565b6113406040830184610efa565b949350505050565b7f4e487b7100000000000000000000000000000000000000000000000000000000600052603260045260246000fd5b7f4e487b7100000000000000000000000000000000000000000000000000000000600052601160045260246000fd5b60006113b182610e71565b91507fffffffffffffffffffffffffffffffffffffffffffffffffffffffffffffffff82036113e3576113e2611377565b5b600182019050919050565b7f496e76616c696420494400000000000000000000000000000000000000000000600082015250565b6000611424600a83611228565b915061142f826113ee565b602082019050919050565b6000602082019050818103600083015261145381611417565b9050919050565b7f416c726561647920657865637574656400000000000000000000000000000000600082015250565b6000611490601083611228565b915061149b8261145a565b602082019050919050565b600060208201905081810360008301526114bf81611483565b9050919050565b7f546f6f206561726c790000000000000000000000000000000000000000000000600082015250565b60006114fc600983611228565b9150611507826114c6565b602082019050919050565b6000602082019050818103600083015261152b816114ef565b9050919050565b600081519050919050565b600081905092915050565b60005b8381101561156657808201518184015260208101905061154b565b60008484015250505050565b600061157d82611532565b611587818561153d565b9350611597818560208601611548565b80840191505092915050565b60006115af8284611572565b915081905092915050565b7f457865637574696f6e206661696c656400000000000000000000000000000000600082015250565b60006115f0601083611228565b91506115fb826115ba565b602082019050919050565b6000602082019050818103600083015261161f816115e3565b9050919050565b600060408201905061163b6000830185610f51565b6116486020830184610efa565b939250505056fea2646970667358221220f6ec077a9d413ce231fc49785e7efaaafdd31b105bf5f36b04faaa497e2ccf8264736f6c63430008130033",
  "linkReferences": {},
  "deployedLinkReferences": {}
}